:020000040800F2
:100000000000032045670008C5170008C71700084F
:10001000C9170008CB170008CD1700080000000022
:10002000000000000000000000000000CF170008E2
:10003000D117000800000000D3170008D5170008EA
:100040009D6700089D6700089D670008DD17000890
:100050009D6700089D6700089D6700089D67000870
:100060009D6700089D6700089D6700089D67000860
:100070009D6700089D6700089D6700089D67000850
:100080009D6700089D6700089D6700089D67000840
:100090009D6700089D6700089D6700089D67000830
:1000A0009D6700089D6700089D6700089D67000820
:1000B0009D6700089D6700089D6700089D67000810
:1000C0009D6700089D6700089D6700089D67000800
:1000D0009D6700089D6700089D6700089D670008F0
:1000E0009D6700089D6700089D6700089D670008E0
:1000F000E5170008ED170008F51700089D670008D0
:100100009D6700089D6700089D6700089D670008BF
:100110009D6700089D6700089D6700089D670008AF
:100120009D6700089D6700089D6700089D6700089F
:0C0130009D6700089D6700089D6700089F
:1001400010B5054C237833B9044B13B10448AFF311
:1001500000800123237010BDE80000200000000093
:100160000871000808B5034B1BB103490348AFF3FE
:10017000008008BD00000000EC00002008710008AD
:1001800001F0FF01102A2BDB10F0070F08D010F848
:10019000013B013A8B422DD010F0070F42B3F6D14C
:1001A000F0B441EA012141EA014122F007047FF065
:1001B00000070023F0E80256083C85EA010586EABC
:1001C000010685FA47F5A3FA87F586FA47F6A5FAF8
:1001D00087F68EB9EED1F0BC01F0FF0102F0070204
:1001E00032B110F8013B013A83EA010313B1F8D1AF
:1001F0000020704701387047002D06BF3546033890
:10020000073815F0010F07D1013015F4807F02BFC8
:10021000013015F4C03F0130F0BC0138704700BF19
:1002200053B94AB9002908BF00281CBF4FF0FF315D
:100230004FF0FF3000F074B9ADF1080C6DE904CE59
:1002400000F006F8DDF804E0DDE9022304B07047B1
:100250002DE9F047089D04468E46002B4DD18A4279
:10026000944669D9B2FA82F252B101FA02F3C2F1AC
:10027000200120FA01F10CFA02FC41EA030E94403D
:100280004FEA1C48210CBEFBF8F61FFA8CF708FB5E
:1002900016E341EA034306FB07F199420AD91CEB36
:1002A000030306F1FF3080F01F81994240F21C8168
:1002B000023E63445B1AA4B2B3FBF8F008FB1033B0
:1002C00044EA034400FB07F7A7420AD91CEB0404E5
:1002D00000F1FF3380F00A81A74240F207816444B5
:1002E000023840EA0640E41B00261DB1D44000233A
:1002F000C5E900433146BDE8F0878B4209D9002D9E
:1003000000F0EF800026C5E9000130463146BDE827
:10031000F087B3FA83F6002E4AD18B4202D3824291
:1003200000F2F980841A61EB030301209E46002D40
:10033000E0D0C5E9004EDDE702B9FFDEB2FA82F295
:10034000002A40F09280A1EB0C014FEA1C471FFAF3
:100350008CFE0126200CB1FBF7F307FB131140EADA
:1003600001410EFB03F0884208D91CEB010103F1A7
:10037000FF3802D2884200F2CB804346091AA4B269
:10038000B1FBF7F007FB101144EA01440EFB00FE3D
:10039000A64508D91CEB040400F1FF3102D2A645A2
:1003A00000F2BB800846A4EB0E0440EA03409CE741
:1003B000C6F12007B34022FA07FC4CEA030C20FAEE
:1003C00007F401FA06F31C43F9404FEA1C4900FA0E
:1003D00006F3B1FBF9F8200C1FFA8CFE09FB18118B
:1003E00040EA014108FB0EF0884202FA06F20BD9FE
:1003F0001CEB010108F1FF3A80F08880884240F24E
:100400008580A8F102086144091AA4B2B1FBF9F091
:1004100009FB101144EA014100FB0EFE8E4508D98C
:100420001CEB010100F1FF346CD28E456AD9023811
:10043000614440EA0840A0FB0294A1EB0E01A142F6
:10044000C846A64656D353D05DB1B3EB080261EB64
:100450000E0101FA07F722FA06F3F1401F43C5E93E
:10046000007100263146BDE8F087C2F12003D84074
:100470000CFA02FC21FA03F3914001434FEA1C47B6
:100480001FFA8CFEB3FBF7F007FB10360B0C43EAA8
:10049000064300FB0EF69E4204FA02F408D91CEB58
:1004A000030300F1FF382FD29E422DD90238634456
:1004B0009B1B89B2B3FBF7F607FB163341EA0341F6
:1004C00006FB0EF38B4208D91CEB010106F1FF3845
:1004D00016D28B4214D9023E6144C91A46EA00463C
:1004E00038E72E46284605E70646E3E61846F8E6CE
:1004F0004B45A9D2B9EB020864EB0C0E0138A3E717
:100500004646EAE7204694E74046D1E7D0467BE7F7
:10051000023B614432E7304609E76444023842E76F
:10052000704700BF84460022FF200FE04000C0B2A9
:100530000133DBB2072B07D810F0800FF6D0400054
:10054000C0B280F03100F3E70132D2B28A4204D265
:100550001CF8023058400023ECE7704710B584B017
:1005600094238DF80F306423009301230DF10F02C3
:10057000882105F0F1FE044610B1204604B010BDFC
:10058000012000F001FBF8E770B584B0002970D0BD
:1005900004460E46FD238DF80F306423009301239B
:1005A0000DF10F02882105F0D7FE054610B128464F
:1005B00004B070BD0A2000F0E7FA6423009306231C
:1005C00002AA8821204605F099FF05460028EED1B1
:1005D000022102A8FFF7A6FF9DF80A3098424AD1EF
:1005E00002210DF10B00FFF79DFF9DF80D309842A1
:1005F00043D19DF808209DF8093043EA022307EE15
:10060000103A9DF80B209DF80C3043EA022307EEC8
:10061000903AB8EE477ADFED1A6A27EE267A9FED18
:10062000196AC7EE066A9FED187A36EEC77A86ED2C
:10063000007AF8EE677A9FED157A67EE877A87EE93
:10064000867AF1EE087A77EE677AC6ED017AF5EEF2
:10065000C07AF1EE10FA09D49FED0D7AF4EEC77A64
:10066000F1EE10FAA3DD86ED017AA0E700237360B6
:100670009DE701259BE7012599E7012597E700BF45
:1006800000002F4300FF7F47000034420000FA4281
:100690000000C84272B6FEE700B59BB048220021B8
:1006A00008A806F0B5F8002301930293039304937E
:1006B00005930693079302F0EBFF4FF0B042D2F898
:1006C000903023F0180343F01003C2F8903002F585
:1006D0008062136823F4C06343F4007313601368EB
:1006E00003F4C0630093009B072308934FF4803307
:1006F000099301230A934FF480730B9340230C93C7
:1007000002231393032314931023159308231693A2
:100710004FF4003317934FF0005319934FF00073C9
:10072000189308A801F0ECFD88B96F230193032109
:10073000029100230393049305938022069207936A
:1007400001A802F069F920B91BB05DF804FBFFF7BE
:10075000A1FFFFF79FFF00B595B05022002168462A
:1007600006F056F84FF4405300934FF48043119332
:100770000223129310231393684602F054FB10B91E
:1007800015B05DF804FBFFF785FF08B503F052F8DC
:1007900000F0D0F9FFF780FFFFF7DDFF00F05AF817
:1007A00000F018F800F090F804F038FF00F08AF834
:1007B00000224FF480614FF0904002F055FF01227B
:1007C00010214FF0904002F04FFF00F0CDF900F003
:1007D000F5F9FCE710B588B000240394049405945F
:1007E000069407944FF0B043DA6C42F00402DA64E6
:1007F000DA6C02F004020292029ADA6C42F002020F
:10080000DA64DA6C02F002020192019ADA6C42F0C8
:100810000102DA64DB6C03F001030093009B012208
:1008200010214FF0904002F01FFF22464FF48061EC
:100830004FF0904002F018FF4FF4826303930123BE
:1008400004930594069403A94FF0904002F0A8FD8C
:1008500008B010BD08B50548054B036003F05AF811
:1008600000B908BDFFF716FFFBE700BF0401002039
:10087000000C00580268124B9A4200D0704700B535
:1008800083B04FF0B0431A6D42F480121A651B6DAD
:1008900003F480130193019B002202212C2002F01B
:1008A00019FF2C2002F04EFF002202212D2002F021
:1008B00011FF2D2002F046FF03B05DF804FB00BFDE
:1008C000000C00587047000000B587B0002301936A
:1008D000029303930493059300932348234A0260F1
:1008E00043600F22826047F6FF72C260036183613A
:1008F000C361436103F064F848BB00238DF8043002
:100900008DF805308DF8063002930493059301228B
:1009100001A9154803F0D1F8E0B905238DF800309E
:1009200003238DF8013001228DF8022024238DF855
:10093000033069460C4803F049F970B900221146AA
:10094000094803F009FA58B907B05DF804FBFFF74E
:10095000A1FED2E7FFF79EFEDFE7FFF79BFEEDE784
:10096000FFF798FEF0E700BF40010020002800409C
:1009700010B596B004465022002102A805F048FFA9
:100980002268164B9A4201D016B010BD4FF4006396
:1009900002934FF48073129302A802F044FAC8B98C
:1009A0004FF0B043D3F8902042F40042C3F89020B7
:1009B0009A6D42F480629A659B6D03F480630193A3
:1009C000019B00220221032002F084FE032002F09A
:1009D000B9FED9E7FFF75EFEE2E700BF002800405E
:1009E000054BCA225A6253225A629A6822F00702C1
:1009F0009A60FF225A62704700280040704700004A
:100A000008B5002003F072FC68B181794FF0B04264
:100A1000054BC2F89C30D2F89C3023F47C5343EA57
:100A20000123C2F89C3008BDFECAFECA08B54FF0CB
:100A3000B042936843F40043936004F05FFC054ABE
:100A4000D2F8803023F0070343F00403C2F880306B
:100A500008BD00BF0004005810B588B003F0B0FA1C
:100A60000F4A0021102004F0A5FD0E4C00940E4BFF
:100A7000019369460D4804F033FB04F58673029335
:100A800004F50673039304F54974049440F23C534F
:100A9000059302A803F05EFB03F08EFA08B010BDC8
:100AA00005510008E4010320FD090008110B0008AE
:100AB00000B585B00023009301930293039343682C
:100AC0005B7B23B1012B1ED005B05DF804FB00F069
:100AD00055F90F238DF800307F238DF802300B4A33
:100AE00013681B0CADF80C301368C3F30B03ADF89F
:100AF0000E30684603F0A4FB01F036F80021012017
:100B000004F006FCE0E700230370DDE7002004E0CA
:100B10004368B3F80B30B3F5124F00D0704710B5EF
:100B200084B00446684603F099FB2046FFF7C0FFF7
:100B300004B010BD08B5034B4FF400421A61FFF733
:100B40005FFF08BD00400058034AD2F8903043F0E0
:100B50005003C2F8903070470008005808B5FFF7FE
:100B6000F3FFFFF73DFF08BD08B5FFF7F7FFFFF7FD
:100B70005DFF0449002000F01BFB00F0EDF8FFF7DB
:100B80006BFF08BD4001002038B5044602F074FE3A
:100B90000546B4F1FF3F09D002F07AFE044405E0B7
:100BA000054A136923F00403136130BF02F064FEA9
:100BB000401BA042F4D338BD00ED00E008B54FF073
:100BC000FF3004F039FC08BD08B504F0B7FB08BDE0
:100BD00008B54FF0FF3004F02FFC08BD08B5002128
:100BE000102004F0CFFB08BD08B5022004F0F8FB8C
:100BF00008BD08B5022004F0B1FC08BD70B58CB08A
:100C000000230793089309930A930B931C461D46F0
:100C10001E4606E04D4A02EBC3018A8815430133A4
:100C2000DBB2252B1ED8494A02EBC3029279002A77
:100C3000F5D0464A52F8332045488242EAD000F5C2
:100C40008060824208D0B2F1904FE8D13F4A02EB77
:100C5000C3018A881643E2E73C4A02EBC3018A8853
:100C60001443DCE70123089303230A9326B93DBB11
:100C7000002C48D10CB070BD07964FF0B043DA6C31
:100C800042F00102DA64DA6C02F001020292029A86
:100C9000D3F84C2142F00102C3F84C21D3F84C3177
:100CA00003F001030193019B07A94FF0904002F06C
:100CB00077FB002231464FF0904002F0D5FCD6E79A
:100CC00007954FF0B043DA6C42F00202DA64DA6C56
:100CD00002F002020492049AD3F84C2142F002027C
:100CE000C3F84C21D3F84C3103F002030393039B68
:100CF000174E07A9304602F053FB00222946304622
:100D000002F0B2FCB4E707944FF0B043DA6C42F063
:100D10000402DA64DA6C02F004020692069AD3F84E
:100D20004C2142F00402C3F84C21D3F84C3103F0BB
:100D300004030593059B074D07A9284602F030FBE5
:100D400000222146284602F08FFC93E7DC71000860
:100D5000000400480008004808B502F0ADFD02F0AC
:100D6000B3FD054AD2F8903043F48033C2F8903096
:100D7000FFF744FF08BD00BF0008005810B588B059
:100D80000DF1040C094C0FCCACE80F0094E80700FF
:100D9000ACE803002CF8022B120C8CF8002003F0B6
:100DA0000BFA01A803F03DFA08B010BD5871000815
:100DB000064A936A9BB2906A80B203E0034B9A6A38
:100DC000034690B28342F9D1704700BF002800402B
:100DD00010B401EB41020F4B03EBC2035B7DDBB2AE
:100DE000062B05D003EB43020A4C04EBC20210753C
:100DF000084A00EB400C02EBCC0C8CF815308CF858
:100E0000141001EB410102EBC10148755DF8044B80
:100E1000704700BF74010020174B1B78DBB28B4278
:100E20001DD0164B01EB410203EBC202127D5FFAAB
:100E300082FC02EB420203EBC202507500EB40025F
:100E400003EBC202517500EB400203EBC20282F8D1
:100E500014C001EB410103EBC10318757047074B48
:100E600000EB400203EBC202517501EB410103EBC1
:100E7000C1010875704700BF6501002074010020A2
:100E800010B4234B1B78DBB283422CD0214C00EBF7
:100E9000400204EBC20292F814C0537DDBB2527DD3
:100EA000D2B20CEB4C0C04EBCC046275062B0BD0CD
:100EB000184A00EB400402EBC404247DE4B203EBC7
:100EC000430302EBC3031C7500EB4000114B03EB23
:100ED000C000012303730E4B1B78DBB2062B10D02E
:100EE0005DF8044B70470A4C2378DBB20A4A137052
:100EF00000EB4003074A02EBC3035B7DDBB22370C8
:100F0000E2E70029ECD1054B4FF0FF321A60E7E72A
:100F10006501002074010020680100206C010020A0
:100F200008B5104B1B68B3F1FF3F02D1002080B21F
:100F300008BDFFF73DFF0B4B1B6883420AD3094BEB
:100F40001B681B1A084A107803FB00F0074B1B783C
:100F5000D840ECE7064B1B881B1A024A1068034472
:100F6000F0E700BF6C010020640100207201002046
:100F70007001002070B50446314B1B78DBB2062BA4
:100F800013D12F4A1378DBB22E490B70107000EB8F
:100F900040042D4B03EBC404062363752B4B4FF029
:100FA000FF321A600025284670BDFFF7B9FF0546DD
:100FB000254B04EB440203EBC202916801449160AB
:100FC00004EB440203EBC20290681D4A127802EB64
:100FD000420203EBC2039B68834225D8184B1B785F
:100FE000D9B203EB4303184A02EBC3035B7DDBB2C8
:100FF0000CE0154A01EB410102EBC1014B7DD9B276
:1010000003EB430302EBC3035B7DDBB2062B07D08C
:1010100003EB43030C4A02EBC3039B688342E8D90A
:101020002046FFF7D5FEBEE7054E31782046FFF794
:10103000F3FE3378DBB2034A13703470B3E700BFBA
:101040006501002068010020740100206C0100206F
:1010500010B548B3044601282ED9013CA4B2194B5F
:101060001B68DA6812F0040FF9D0DA68D2B262F4C1
:101070009062DA60144B4FF40022DA60032002F031
:10108000A3FB124A53691B0C1B041C435461FFF75A
:101090008FFE0F4B18600B4B1A68936843F4806304
:1010A0009360AFF3008010BDFFF782FE084B18601D
:1010B000032002F07BFBF6E7064B1B78012BCCD11B
:1010C000CDE700BF40010020000800580028004084
:1010D0006C0100207201002038B52F4B9B6813F47F
:1010E000806F05D02D4B1B68DB6813F0040FF9D11E
:1010F0002A4B1A68936823F480639360284B1B780B
:10110000DCB203EB4303274A02EBC3039D68FFF7FE
:1011100007FF8446A84204D9234B01221A700020FD
:1011200024E0224B1B8810FA83F3AB4206D21F4BFC
:10113000188880B21C4B00221A7017E0A8B2A0EBEE
:101140000C0080B2184B01221A700FE004EB44042B
:10115000144A02EBC404A268A2EB0C02A26003EBE7
:101160004303104A02EBC3035C7DE4B2062C0FD0AC
:10117000234604EB44020B4901EBC20292689445FA
:10118000E4D904EB440401EBC4040022A260E6E7C6
:10119000FFF75EFF38BD00BF00280040400100207F
:1011A0006501002074010020730100206601002009
:1011B00010B5484B1B68CA225A6253225A624649EC
:1011C0008B6843F020038B608B6803F00703C3F147
:1011D0000403DAB2414B1A700B6903F4FE034FF4B7
:1011E000FE0191FAA1F1002931D0B1FA81F1CB4091
:1011F000DBB20133DBB23A490B7037490969C1F3FD
:101200000E010131374C2180013901FB03F3A3F5B5
:10121000A073D3404FF6FE7293421AD9324B4FF669
:10122000FF721A80314B1A6842F400221A60D3F818
:10123000802042F40022C3F8802000283FD12C4BAC
:1012400001221A702B4B4FF0FF321A600EE0202162
:10125000CDE79BB2244A1380E4E700EB4002264B23
:1012600003EBC20300221A730130C0B20528F4D97F
:10127000224B06221A70174C2268936823F480636D
:101280009360D368DBB263F49063D360174B4FF481
:101290000022DA60032002F097FA2268936843F490
:1012A000804393600B4B1B68FF225A62002203218C
:1012B000084602F00FFA032002F044FA10BD054B75
:1012C0001B68DB6813F4806FECD0032002F06EFA29
:1012D000E8E700BF40010020002800407201002024
:1012E0006401002070010020660100200008005801
:1012F000730100206C0100207401002065010020B2
:10130000F0B5EFF3108572B64FF0000CBCF1050F8D
:101310000CD80CEB4C0E154C04EBCE0E9EF80C408A
:1013200024B10CF1010C5FFA8CFCEFE7BCF1060F65
:1013300017D00E4E4FEA4C040CEB4C0E06EBCE0EC3
:1013400001278EF80C7085F31088CEF810008EF807
:101350000D2004EB0C02D200B35081F800C0002035
:10136000F0BD85F310880120FAE700BF740100206A
:1013700038B50446EFF3108572B6032002F0F0F999
:10138000254B1B68CA225A6253225A6204EB44025C
:10139000224B03EBC2031B7BDBB2022B09D01E4B9B
:1013A0001B68FF225A62032002F0CCF985F31088F3
:1013B00038BD00212046FFF763FD194B1B78DBB2D7
:1013C000062B07D0174A1278D2B29A42E7D0FFF71D
:1013D00083FEE4E7144B9B6813F4806F05D00E4B3B
:1013E0001B68DB6813F0040FF9D10B4B1A68936884
:1013F00023F480639360D36813F0040FFBD0D368A9
:10140000DBB263F49063D360084B4FF40022DA60E0
:10141000032002F0D9F9C2E7400100207401002046
:1014200065010020680100200028004000080058E5
:1014300070B504460D4600EB4002214B03EBC2039E
:101440001B7BDBB2022B35D0EFF3108672B6032084
:1014500002F086F91B4B1B68CA225A6253225A6259
:1014600004EB4403164A02EBC30302221A739D6085
:101470005D602046FFF77EFD134B1B78DBB2134AFD
:101480001278D2B29A4218D10D4B04EB440203EB0E
:10149000C2029268101A04EB440403EBC404A06077
:1014A000084B1B68FF225A62032002F04BF986F3B7
:1014B000108870BDFFF75CFFC6E7FFF70DFEEFE792
:1014C0007401002040010020650100206801002017
:1014D00008B5904708BD0000F8B5EFF3108472B668
:1014E000314B1B68CA225A6253225A629A6822F40C
:1014F00080629A602D4A1278D5B202EB4202D10086
:101500002B4A0A44127BD2B2022A13D0DA6812F0B4
:10151000040FFBD0DA68D2B262F49062DA60254B35
:101520004FF40022DA6084F310881F4B1B68FF22FF
:101530005A62F8BD1E4A05EB4501CB00D118D758B9
:101540000E691D4B1B7853B34B7BDBB2012B10D0C4
:1015500084F310882846FFF70BFF134B1B68CA2241
:101560005A6253225A623A4629463046FFF7B0FF84
:10157000DBE701212846FFF783FC84F3108805EBA5
:101580004503DA000A4B134459682846FFF750FF19
:10159000054B1B68CA225A6253225A62E3E7FFF7DF
:1015A0009BFD84F31088C0E7400100206501002006
:1015B0007401002000080058730100204FF0B04271
:1015C000136843F4807313604FF0B0431B6813F447
:1015D000806FF9D04FF0B042936823F0030343F0DB
:1015E00001039360536A23F0030353624FF0B04347
:1015F0009B6803F00C03042BF8D1704708B5184B17
:10160000D3F88C20174B9A42F9D1154BD3F8902080
:10161000144B9A420BD0FFF7D1FF134A136823F003
:10162000070313600E4B4FF48062DA6008BD03F1CC
:101630005843D3F8883013F4004F05D10B4BD3F83F
:10164000883013F4806FEDD0054B4FF480621A613F
:10165000FFF7B4FF044A136823F007031360E1E7C0
:101660000014005800040080004000580004005896
:1016700008B502F013F9FFF7C1FF084A1F23936171
:10168000136823F0070343F003031360044A13694C
:1016900043F00403136130BF08BD00BF00040058CD
:1016A00000ED00E008B502F0F9F8FFF7A7FF074AE0
:1016B000136823F0070343F002031360044A13691D
:1016C00043F00403136130BF08BD00BF000400589D
:1016D00000ED00E008B502F0E1F8034A136923F0D9
:1016E0000403136130BF08BD00ED00E008B502F04F
:1016F000DCF808BD08B502F0D8F808BD08B52B4BDA
:101700004FF480621A61294BD3F88C20284B9A42FF
:10171000F9D14FF0B0439B6803F00C03042B04D0C5
:10172000224B4FF48062DA6008BD4FF0B04213687C
:1017300043F4803313604FF0B0431B6813F4003F51
:10174000F9D04FF0B0431A6842F080721A60DA683C
:1017500042F08052DA604FF0B0431B6813F0007F14
:10176000F9D0144A136823F0070343F0030313600E
:10177000104B1B6803F00703032BF9D14FF0B04265
:10178000936843F0030393604FF0B0439B6803F00A
:101790000C030C2BF8D14FF0B042536A23F0030333
:1017A00043F00203536202F08BFBB9E700140058C8
:1017B000000400800040005808B5FFF79FFF02F0CA
:1017C00074F808BDFEE7FEE7FEE7FEE7FEE77047B8
:1017D0007047704708B502F043F808BD08B5FFF739
:1017E0007BFE08BD08B500F069FC08BD08B500F037
:1017F00005FC08BD08B501F03DFF08BD00B583B08C
:101800004FF0B0431A6D42F400221A651B6D03F4C9
:1018100000230193019B002202212E2001F05AFF98
:101820002E2001F08FFF03B05DF804FB08B5002106
:10183000082003F0A7FD08BD08B50021012003F032
:10184000A1FD08BD08B500224FF480614FF0904023
:1018500001F00AFF08BD000000B583B0054B0093FE
:10186000054B01936946054803F026FB03B05DF87C
:1018700004FB00BF280003209B1800088118000803
:1018800010B504464068083003F00EFD10B1012386
:10189000237010BD00232370FBE708B510B10128A9
:1018A00004D008BD0F2003F081FDFAE70F2003F0FC
:1018B0008BFDF6E708B50F4BD3F88025B2F1FF3F5B
:1018C00010D0D3F884350C480270C2F3072242705E
:1018D0008370C3F30722C270C3F3074202711B0E69
:1018E000437108BD002002F001FD0028F9D1034832
:1018F000F7E700BF0070FF1F90020020547300083C
:1019000030B58DB00025ADF8285003F0B8F8FFF7DA
:10191000D1FF044602460621284603F030F8384D30
:1019200020682860A388AB806279364B1A722279CE
:101930005A72E2789A72A278DA7262781A7322780E
:101940005A73314A1021182003F019F82F4A102138
:10195000082003F014F81821012003F040F802F0E9
:10196000B5FE2B7800936B78294A0B2107A804F069
:1019700057FF0DF12A0301930BAB00930DF12E03DA
:101980000A220021012002F0EDFD07AB009309239C
:101990000022BDF82C10BDF82E0002F069FF0AAB42
:1019A000009302230022BDF82A10BDF82E0002F099
:1019B0005FFF02221146002003F0E6F8154C0125D6
:1019C0002570284602F068FD6570082222711021FA
:1019D00061710023E3701048A060A5700493039028
:1019E0000293019100922A462946284602F07AFD88
:1019F000A3780BB90DB030BD02F020FEFAE700BFAE
:101A0000980200201400002044730008347300087A
:101A1000247300080802002007B20100F0B589B065
:101A20000446012838D04FF47A664FF4C865234F36
:101A300097F88100FFF79CFC97F88030013BDBB200
:101A4000012B2ED91D4B83F8804000200690059075
:101A500003F1190204921B7E0393194B0293194B55
:101A60001B780193009003463246294602F0BAFCE7
:101A7000054615490E2002F0B4FD034610B9012CAD
:101A800012D02B46C3B10121104A1170104A002117
:101A90001170184609B0F0BD0E4B1D880E4B1E8804
:101AA000C5E702F07EFCCDE70C49044B93F88100BA
:101AB000FFF7BEFC2B46E5E71946E5E708020020E4
:101AC0000800002011000020140000209E020020C9
:101AD0009F020020060200200402002046E00100D0
:101AE00008B5164B4AF6AA221A60154B93F88030B7
:101AF000022B11D008D8012B1CD1124B1B7853B1EB
:101B00000220FFF78BFF06E0053BDBB2012B11D86B
:101B10000D4B00221A7008BD0A4B1B7833B90A4AD4
:101B200013780133DBB21370132BF4D90220FFF7C3
:101B300075FFF0E70220FFF771FFECE7003000408F
:101B4000080200209E0200209F02002008B5054BDD
:101B500093F88030052B00D108BD0220FFF75EFF0F
:101B6000FAE700BF0802002030B595B00DF1140C63
:101B70004C4C0FCCACE80F000FCCACE80F000FCCF6
:101B8000ACE80F0094E80700ACE80300ACF80020D4
:101B9000FFF762FE0121022003F0BAFB424A002156
:101BA000022003F007FD05A802F02CFB002868D1F5
:101BB000FFF7A6FE03F062FB3C4B002183F8801088
:101BC0004FF6FF72DA823A4A012003F0F3FC062056
:101BD00002F02EFF00F06EF903F0BAFF354B1A78D1
:101BE00000925B78344A0B2102A804F019FE3348B6
:101BF000092300F8013B1A4602A904F0FBFD0A2262
:101C00002F4B1A70294D2F4B002205F181011046F0
:101C1000FFF776FB2C4B002205F182011046FFF7FF
:101C20006FFB00246C762C76284B80221A80284B80
:101C3000A0221A800120FFF7F1FE264A2146082043
:101C400003F0B8FC244D254B012229462046FFF71E
:101C500057FB47F611012878FFF7EAFB204AD36BC0
:101C600043F48053D3631F4B4CF6CC421A6045F2C9
:101C700055521A6006225A6040F6FF729A601A4B5B
:101C800003E0FEF707FD93E71346164AD26812B148
:101C90005A1E002BF8D1134B4AF6AA221A6015B02F
:101CA00030BD00BF74710008DD4E0008080200203E
:101CB0004D1B000898020020247300080800002033
:101CC00011000020391800084518000806020020FD
:101CD00004020020E11A0008A00200202D180008CC
:101CE000002004E00030004040420F0030B583B0D7
:101CF000044643783E2B24D0FF2B60D0052B02D026
:101D0000012003B030BD8288374BDB8A9A4212D063
:101D1000354B93F88030053BDBB2012BF0D9012025
:101D2000FFF77CFE3148012303702F4BDB8A438091
:101D300000F0B6F8E4E72C4B0022DA8283F880202A
:101D4000E6E7C378012B0AD00C2BD9D10DF106029E
:101D50000DF10701244BD88A02F0E4FED0E70379A5
:101D60003BB1214B002283F880200120FFF756FE73
:101D7000C6E71D4D95F88100FFF7FAFA95F8803017
:101D8000042B18D0184B052283F88020B4F80530B6
:101D9000154AD382154C002222706380204600F041
:101DA0007FF8608802F099FD40F648029C21608827
:101DB00002F085FEA4E7062285F88020E6E7B0F869
:101DC000033040F20542934208D040F60E4293425F
:101DD00096D1054BD88A02F0AAFD91E7024BD88A2A
:101DE00002F04DFC8CE700BF080200208C020020AE
:101DF00010B50446184B93F88200FFF7B9FAE10ECC
:101E000063011B1B61F10001890041EA93719B0092
:101E1000181941F10001C90041EA5071C00040F2B7
:101E2000E713C0184FF4F4724FF0000341F10001C2
:101E3000FEF7F6F9044600B9012401224FF480614F
:101E40004FF0904001F010FC2146034B93F88200C4
:101E5000FFF7EEFA10BD00BF0802002008B5002110
:101E6000022003F08FFA08BD08B5012003F0B8FA8C
:101E700008BD08B5012003F071FB08BD08B5037863
:101E800013B1012B06D008BD044B01221A7003F0D8
:101E9000A1FEF8E7014B00221A70F4E7A10200202E
:101EA0000378012B00D07047014B00221A70FAE72B
:101EB000A10200207047000010B5064C636843F48F
:101EC00000236360044B1B6898474FF40023A36012
:101ED00010BD00BF000C0058A402002082B04FF0DB
:101EE000B043D3F8502142F48012C3F85021D3F804
:101EF000503103F480130193019B0A4B1A6A42F498
:101F000000721A62D3F8D42042F40072C3F8D420CD
:101F100040BF20BF044AD36843F40043D36002B0FB
:101F2000704700BF000800580004005800B583B097
:101F30004FF0B0431A6D42F480121A651B6D03F422
:101F400080130193019B094B1A6842F001021A6049
:101F50001A6842F480321A602C2001F0F3FB2D2025
:101F600001F0F0FB03B05DF804FB00BF000C00586B
:101F7000024A536823F0010353607047000C005875
:101F8000024B4FF480329A60704700BF000C00583B
:101F900008B5044A536843F40013536002F080F814
:101FA00008BD00BF000C005808B502F061F8024BF4
:101FB00001229A6008BD00BF000C0058024A536815
:101FC00023F0020353607047000C0058044B4FF499
:101FD00000329A605A6822F400325A60704700BF9B
:101FE000000C005808B5044A536843F400335360AA
:101FF00002F08AF808BD00BF000C005808B5144B69
:10200000DB6813F0020F04D1114B5B6813F4003F3F
:1020100014D00F4BDB6813F0080F04D10C4B5B6836
:1020200013F4002F0DD00A4BDB6813F0200F04D1FE
:10203000074B5B6813F4001F06D008BDFFF7D2FF03
:10204000FBE7FFF739FFF8E7FFF7A2FFF5E700BF6F
:10205000000C005808B502F065F8024B02229A60A5
:1020600008BD00BF000C005808B5094BDB6813F031
:10207000080F05D18047064B4FF400229A6008BD37
:10208000044B1860024A536823F400235360F6E7B8
:10209000000C0058A4020020024A536823F00803F1
:1020A00053607047000C005808B502F097F8024BD7
:1020B00008229A6008BD00BF000C005808B5144BF8
:1020C000DB6913F0020F0AD1114BDB6913F0010F2A
:1020D0000DD10F4BDB6913F0080F10D108BD0C4B6D
:1020E0005B6813F0020FEFD1FFF7B4FFF6E7084B80
:1020F0005B6813F0010FECD1FFF756FFEEE7044BDE
:102100005B6813F0080FE9D1FFF7CEFFE6E700BFE9
:10211000000C005830B58DB005468E462B4C94E827
:102120000F000DF1300C0CE90F0005AB04F11002AB
:1021300007CA83E807000DF1040C1C3494E80F0073
:102140008CE80F00BEF5007F07D0002314E00CAA36
:1021500002EB830353F82C5C1EE00023032B08D80A
:102160000CAA02EB830252F8102CAA42EFD20133E0
:10217000F4E7002510E00133022B0CD80CAA02EB87
:10218000830252F81C2CAA42F5D30CAA02EB83035B
:1021900053F82C5C00E000250D4A136823F0070378
:1021A0002B43136001F068FB0446094B1B6803F0E6
:1021B0000703AB4206D001F05FFB001B0228F4D9F5
:1021C000032000E000200DB030BD00BFB07100085A
:1021D0000040005810B5B02816D90E4BDC6A4FF0FD
:1021E000B043D3F8083103F00F030B4A52F8230031
:1021F000B4FBF0F401F054FA01460848A0FB0430A7
:10220000800CFFF787FF10BDC0F30310014B53F89C
:102210002040E4E79C7300085C73000883DE1B43E6
:102220004FF0B0439B6813F00C030DD14FF0B04357
:102230001B6803F0F003B02B04D81B09254A52F8A1
:1022400023007047B023F8E7042B3ED0082B10D0B2
:102250004FF0B043DB6803F00303022B31D0032BB4
:102260000FD14FF0B0431B6813F4801F2BD11A48D5
:1022700012E04FF0B0431B6813F4801F27D01748BB
:1022800070474FF0B0431B6803F0F003B02B16D833
:102290001B09104A52F823004FF0B042D368C3F331
:1022A000062303FB00F0D368C3F302130133B0FB32
:1022B000F3F0D3685B0F0133B0FBF3F07047B0234A
:1022C000E6E70648E8E70548E6E7044870470248BD
:1022D000704700BF9C7300080048E8010024F40028
:1022E00008B5FFF79DFF4FF0B0439B68C3F303139E
:1022F000024A52F82330B0FBF3F008BD5C730008CB
:10230000002800F0728338B50446036813F0200FEC
:102310002DD04FF0B0429368D26802F0030213F060
:102320000C0358D00C2B54D0E369002B00F0A08094
:102330004FF0B042136843F00103136001F09CFAC0
:1023400005464FF0B0431B6813F0020F00F0888081
:10235000636A4FF0B042116821F0F0010B43136043
:10236000216A536823F47F4343EA012353602368BF
:1023700013F0010F00F09A804FF0B042936803F021
:102380000C03D26802F00302082B00F08B800C2BA8
:1023900000F085806368B3F5803F00F0B0804FF0B7
:1023A000B042136823F4803313606368002B00F09D
:1023B000AD8001F061FA05464FF0B0431B6813F49D
:1023C000003F73D101F058FA401B6428F4D9032070
:1023D00016E3012AA8D1E369002B00F00883606AA4
:1023E0004FF0B0431B6803F0F003B02B21D89842A4
:1023F00021D9FFF7EFFE002840F0FB82636A4FF01F
:10240000B042116821F0F0010B431360216A536858
:1024100023F47F4343EA01235360FFF761FFBF4B7F
:102420001860BF4B186801F0DDF900289FD001202B
:10243000E6E2B023DBE74FF0B042136823F0F0038D
:1024400018431060216A536823F47F4343EA012351
:102450005360606AFFF7BEFE0028DED00120CFE2A5
:1024600001F00AFA401B02287FF66BAF0320C7E297
:102470004FF0B042136823F00103136001F0FCF940
:1024800005464FF0B0431B6813F0020F3FF46FAFE7
:1024900001F0F2F9401B0228F3D90320B0E2032A2D
:1024A0007FF478AF6368002B00F0A582236813F0F7
:1024B000020F54D04FF0B042936803F00C03D2687F
:1024C00002F00302042B33D00C2B2FD0E368002B37
:1024D00071D04FF0B042136843F48073136001F081
:1024E000CBF905464FF0B0431B6813F4806F2DD134
:1024F00001F0C2F9401B0228F4D9032080E24FF01A
:10250000B042136843F4803313604EE701F0B4F92E
:1025100005464FF0B0431B6813F4003FC6D001F0EE
:10252000ABF9401B6428F4D9032069E2022ACDD11B
:10253000E368002B00F0618221694FF0B0425368DC
:1025400023F0FE4343EA0163536008E021694FF042
:10255000B042536823F0FE4343EA016353602368AB
:1025600013F0180F00F0DE806269002A00F0A380EB
:1025700013F0100F70D04FF0B043D3F8943013F035
:10258000020F2ED14FF0B042D2F8943043F0010345
:10259000C2F8943001F070F905464FF0B043D3F81B
:1025A000943013F0020F1CD101F066F9401B022891
:1025B000F3D9032024E24FF0B042136823F4807370
:1025C000136001F059F905464FF0B0431B6813F44E
:1025D000806FC4D001F050F9401B0228F4D90320C9
:1025E0000EE24FF0B042D2F8943043F00403C2F848
:1025F000943001F041F905464FF0B043D3F89430E0
:1026000013F0080F06D101F037F9401B0328F3D966
:102610000320F5E1A1694FF0B042D2F8943023F4E1
:10262000706343EA0123C2F89430D2F8943023F067
:102630000103C2F8943001F01FF905464FF0B04392
:10264000D3F8943013F0020F6CD001F015F9401B51
:102650000228F3D90320D3E14FF0B042D2F89430EE
:1026600043F00103C2F8943001F006F905464FF03B
:10267000B043D3F8943013F0020F06D101F0FCF808
:10268000401B0228F3D90320BAE14FF0B042D2F840
:10269000943023F00403C2F894304FF0B043D3F8E1
:1026A000943013F0080F3DD001F0E6F8401B0328EA
:1026B000F3D90320A4E14FF0B042D2F8943023F0D4
:1026C0000403C2F8943001F0D7F805464FF0B04348
:1026D000D3F8943013F0080F18D14FF0B042D2F86D
:1026E000943023F00103C2F8943001F0C5F8054698
:1026F0004FF0B043D3F8943013F0020F12D001F032
:10270000BBF8401B0228F3D9032079E101F0B4F8AB
:10271000401B0328DAD9032072E100BF2800002003
:1027200024000020236813F0040F68D0B74B1B6807
:1027300013F4807F27D0A368012B35D0052B3CD024
:102740004FF0B043D3F8902022F00102C3F890205C
:10275000D3F8902022F00402C3F89020A368DBB3E2
:1027600001F08AF805464FF0B043D3F8903013F0EB
:10277000020F44D101F080F8401B41F288339842A7
:10278000F1D903203CE100F083FF01F075F8054624
:102790009E4B1B6813F4807FCDD101F06DF8401B78
:1027A0000228F5D903202BE14FF0B042D2F8903047
:1027B00043F00103C2F89030D0E74FF0B043D3F8B4
:1027C000902042F00402C3F89020D3F8902042F009
:1027D0000102C3F89020C1E701F04EF805464FF022
:1027E000B043D3F8903013F0020F08D001F044F852
:1027F000401B41F288339842F1D9032000E123685D
:1028000013F0400F33D0A36AC3B14FF0B042D2F8F7
:10281000983043F00103C2F8983001F02DF80546D6
:102820004FF0B043D3F8983013F0020F1FD101F0EE
:1028300023F8401B0228F3D90320E1E04FF0B04217
:10284000D2F8983023F00103C2F8983001F014F860
:1028500005464FF0B043D3F8983013F0020F06D07E
:1028600001F00AF8401B0228F3D90320C8E0E36A0C
:10287000002B00F0C4804FF0B042916801F00C01D1
:10288000D268022B19D00C2900F0BD804FF0B04265
:10289000136823F08073136000F0EEFF04464FF0DE
:1028A000B0431B6813F0007F00F0978000F0E4FF56
:1028B000001B0228F3D90320A2E002F00303206BDF
:1028C00083420AD00C2900F09C804FF0B0431B6873
:1028D00013F0806F22D0012092E002F07003606B51
:1028E0008342EFD1C2F30623A06B8342EAD102F404
:1028F0007813E06B8342E5D102F06063206C834281
:10290000E0D102F06042636C9A42DBD14FF0B043F9
:102910001B6813F0007F44D0002071E04FF0B042FC
:10292000136823F08073136000F0A6FF05464FF094
:10293000B0431B6813F0007F06D000F09DFF401BE2
:102940000228F4D903205BE04FF0B042D36830494D
:102950001940236B606B0343A06B43EA0023E06BD9
:102960000343206C0343606C03430B43D360136841
:1029700043F080731360D36843F08053D36000F05A
:102980007BFF04464FF0B0431B6813F0007F06D175
:1029900000F072FF001B0228F4D9032030E0002071
:1029A0002EE04FF0B0431A6842F080721A60DA6885
:1029B00042F08052DA6000F05FFF04464FF0B0430F
:1029C0001B6813F0007F06D100F056FF031B022B9B
:1029D000F4D9032014E0002012E04FF0B042D16897
:1029E0000C4B0B40D36000200AE00120704701200F
:1029F00006E0012004E0012002E0012000E00020C8
:102A000038BD0120FCE70120FAE700BF00040058B0
:102A10008C80C111FCFFFEEE002800F0278170B50C
:102A20000C460546934B1B6803F007038B422DD3DE
:102A30002B6813F0020F3FD12B6813F0200F53D1F6
:102A40002B6813F0400F6AD12B6813F0040F40F08D
:102A500083802B6813F0080F40F097802B6813F0E9
:102A6000010F00F0DE806B68022B00F0A880032BC2
:102A700000F0AD80002B40F0B2804FF0B042126801
:102A800012F0020F40F0B1800120EEE0794A1368A5
:102A900023F007030B43136000F0EEFE0646754B70
:102AA0001B6803F00703A342C2D000F0E5FE801BC1
:102AB0000228F4D90320D8E0AB684FF0B0418A680F
:102AC00022F0F00213438B6000F0D6FE06464FF072
:102AD000B0439B6813F4803FAED100F0CDFE801B65
:102AE0000228F4D90320C0E06B694FF0B041D1F85F
:102AF000082122F0F0021343C1F8083100F0BCFEB7
:102B000006464FF0B043D3F8083113F4003F97D195
:102B100000F0B2FE801B0228F3D90320A5E0A969CA
:102B20004FF0B042D2F8083123F00F0343EA1113FB
:102B3000C2F8083100F0A0FE06464FF0B043D3F8CB
:102B4000083113F4803F7FF47FAF00F095FE801BC7
:102B50000228F2D9032088E0EB684FF0B0418A6880
:102B600022F4E06213438B6000F086FE06464FF0CD
:102B7000B0439B6813F4003F7FF46BAF00F07CFE22
:102B8000801B0228F3D903206FE029694FF0B0427F
:102B9000936823F4605343EAC103936000F06CFE32
:102BA00006464FF0B0439B6813F4802F7FF456AF76
:102BB00000F062FE801B0228F3D9032055E04FF09D
:102BC000B042126812F4003F0FD101204DE04FF0E7
:102BD000B042126812F0007F07D1012045E04FF0AB
:102BE000B042126812F4806F42D04FF0B0418A6850
:102BF00022F0030213438B6000F03EFE06464FF0C6
:102C0000B0439B6803F00C036A68B3EB820F08D0F3
:102C100000F032FE801B41F288339842EFD9032046
:102C200023E0144B1B6803F00703A34215D9114A94
:102C3000136823F007032343136000F01DFE0546CD
:102C40000C4B1B6803F00703A34206D000F014FEF0
:102C5000401B0228F4D9032007E0FFF741FB064B95
:102C6000186000F00FFE00F0BDFD70BD0120704740
:102C70000120FAE7004000582800002070B5054602
:102C80004FF0B042136823F08063136000F0F4FD4E
:102C900004464FF0B0431B6813F0006F06D000F0FD
:102CA000EBFD001B0228F4D9032400E000240CB142
:102CB000204670BD4FF0B0431A6922F4FE422968E5
:102CC00042EA01221A611A6922F4781269680A43F9
:102CD0001A611A6842F080621A6000F0CDFD064663
:102CE0004FF0B0431B6813F0006F05D100F0C4FD36
:102CF000801B0228F4D90324002CD9D14FF0B04214
:102D0000136929690B431361D2E770B505464FF08B
:102D1000B042136823F08063136000F0ADFD0446F9
:102D20004FF0B0431B6813F0006F06D000F0A4FD15
:102D3000001B0228F4D9032400E000240CB1204633
:102D400070BD4FF0B0431A6922F4FE42296842EA8E
:102D500001221A611A6922F06062A9680A431A61A5
:102D60001A6842F080621A6000F086FD06464FF055
:102D7000B0431B6813F0006F05D100F07DFD801B90
:102D80000228F4D90324002CD9D14FF0B0421369A2
:102D900029690B431361D2E770B505464FF0B04285
:102DA000136823F08063136000F066FD04464FF063
:102DB000B0431B6813F0006F06D000F05DFD001BF0
:102DC0000228F4D9032400E000240CB1204670BD91
:102DD0004FF0B0431A6922F4FE42296842EA012208
:102DE0001A611A6922F06042E9680A431A611A6896
:102DF00042F080621A6000F03FFD06464FF0B0439B
:102E00001B6813F0006F05D100F036FD801B02280F
:102E1000F4D90324002CD9D14FF0B04213692969A9
:102E20000B431361D2E770B50446036813F0400FFB
:102E30002FD0036BB3F5800F21D00AD833B90430FB
:102E4000FFF71CFF064658B1054624E001252E4633
:102E500021E0B3F5000F1AD0B3F5400F0CD10026D6
:102E6000236B4FF0B041D1F8882022F44002134385
:102E7000C1F8883000250EE001252E460BE04FF00A
:102E8000B042D36843F48033D3600026E8E70026DD
:102E9000E6E700252E46236813F4006F0AD04FF0B2
:102EA000B043D3F8905005F44075236CAB4240F02A
:102EB000B7803546236813F0010F09D0A3694FF09E
:102EC000B041D1F8882022F003021343C1F88830C2
:102ED000236813F0020F09D0E3694FF0B041D1F835
:102EE000882022F440621343C1F88830236813F02D
:102EF000100F0CD0A06A4FF0B041D1F88830020C0E
:102F0000120423EA020343EA0043C1F8883023682D
:102F100013F0200F0CD0E06A4FF0B041D1F88830A8
:102F2000020C120423EA020343EA0043C1F888308A
:102F3000236813F0040F40F0B480236813F0080FE7
:102F400040F0C080236813F4807F13D0636B4FF090
:102F5000B041D1F8882022F040621343C1F8883094
:102F6000636BB3F1006F00F0BE80636BB3F1806FF1
:102F700000F0BE80236813F4007F17D0A36BB3F179
:102F8000804F05D0B3F1004F02D0002B40F0B88045
:102F90004FF0B041D1F8882022F040421343C1F8ED
:102FA0008830A36BB3F1C05F00F0BC80236813F4DA
:102FB000806F13D0E36B4FF0B041D1F8882022F03E
:102FC00040521343C1F88830E36BB3F1005F00F067
:102FD000B080E36BB3F1805F00F0B080236813F43E
:102FE000805F09D0636C4FF0B041D1F8942022F497
:102FF00040421343C1F89430236813F4005F0DD0AE
:10300000E26C4FF0B043596A21F030010A435A6232
:10301000A26C596A21F003010A435A62284670BD26
:1030200000F036FB5DB9236C4FF0B041D1F8902031
:1030300022F440721343C1F8903035463AE74FF01E
:10304000B043D3F89020D3F8901041F48031C3F806
:103050009010D3F8901021F48031C3F8901022F42E
:103060004072216C0A43C3F89020D3F8903013F0DB
:10307000010F12D000F000FC05464FF0B043D3F82A
:10308000903013F0020F0AD100F0F6FB401B41F222
:1030900088339842F1D903250CE735460AE73546CF
:1030A00008E7236A4FF0B040D0F88820190901F4EE
:1030B0007F2122EA01021B0103F47F231343C0F89E
:1030C00088303AE7636A4FF0B040D0F88820190999
:1030D00001F47F2122EA01021B0103F47F23134341
:1030E000C0F888302EE7CB6843F08073CB603CE7B4
:1030F000201DFFF70AFE00283FF43CAF054639E7E4
:1031000023F080534FF0B042D2F8881021F04041B4
:10311000C2F88810D2F8881021F040610B43C2F841
:1031200088303EE74FF0B042D36843F08073D360FD
:103130003CE7CB6843F48033CB604AE7201DFFF7C0
:103140002BFE00283FF44AAF054647E710B4064C73
:10315000616941F0010161610260BFF36F8F4360FB
:103160005DF8044B704700BF00400058094B5B6995
:10317000002B01DB00207047064B074A9A6002F1E2
:1031800088329A605B69002B01DB002070470120C8
:10319000704700BF0040005823016745054B5A693E
:1031A00042F000425A615B69002B01DB012070474D
:1031B000002070470040005838B5054600F05CFB21
:1031C00004461B4B1B6913F4803F06D000F054FBF0
:1031D000001BA842F5D3032038BD154B1B6913F023
:1031E000010F02D0124A0121116113F4004F05D0E2
:1031F0000F4A4FF40041116123F400434CF2FA32BC
:10320000134001D00A4A13615BB9094B1B6913F4DF
:10321000802F0AD000F030FB001BA842F5D303201A
:10322000DAE7044A53600120D6E70020D4E700BF64
:1032300000400058A8020020F8B51F46154B1B7827
:10324000012B25D004460D461646124B01221A705A
:1032500000225A604FF47A70FFF7AEFF70B9012C6C
:1032600010D03146284603F05BFF4FF47A70FFF729
:10327000A3FF094A536923EA04045461054B002261
:103280001A70F8BD32463B462846FFF75FFFECE771
:103290000220F6E7A802002000400058164B1B68E9
:1032A00013F4007F10D0144B1A6822F400721A60D5
:1032B0001A6842F400621A601A6822F400621A6006
:1032C0001A6842F400721A600B4B1B6813F4806F8B
:1032D00010D0094B1A6822F480621A601A6842F40E
:1032E00080521A601A6822F480521A601A6842F4F6
:1032F00080621A60704700BF00400058034A53695B
:1033000023F4FF6323F00203536170470040005829
:10331000054A536923F4FF6343EAC00040F4803058
:1033200040F002005061704700400058F8B51B4B58
:103330001B78012B2FD004460E46184B01221A7021
:1033400000225A604FF47A70FFF736FF074620B923
:103350002368022B06D0FFF7A1FF104B00221A7042
:103360003846F8BD4FF0FF333360656800E0013543
:103370006368A2681344AB420AD92846FFF7C8FF26
:103380004FF47A70FFF718FF07460028EFD035603A
:10339000FFF7B4FFDFE70227E2E700BFA802002043
:1033A000F0B5002366E085685E000324B44025EA9A
:1033B0000405CC68B4402C438460446824EA0C0CB7
:1033C0004C68C4F300149C4044EA0C04446062E07E
:1033D000DD08083550F8256003F007044FEA840C37
:1033E0000F2404FA0CF426EA040E0C6904FA0CF417
:1033F00044EA0E0440F8254064E0042400E0002480
:1034000004FA0EF42C430CF1020C4F4D45F82C40FD
:103410004E4C2568D44325EA02064F6817F4801FF6
:1034200001D042EA0506494D2E606D6804EA0506A2
:103430004F6817F4001F01D042EA0506434D6E6045
:10344000D5F8805004EA05064F6817F4803F01D094
:1034500042EA05063D4DC5F88060D5F884502C4001
:103460004E6816F4003F01D042EA0504374AC2F81C
:10347000844001330A6832FA03F464D04FF0010C3F
:103480000CFA03FC1CEA0202F3D04C6804F00304BB
:10349000013C012C87D94C6804F00304032C0CD0A8
:1034A000C4685D004FF0030C0CFA05FC24EA0C0C18
:1034B0008C68AC4044EA0C04C4604C6804F003041B
:1034C000022C85D004684FEA430E4FF0030C0CFA2F
:1034D0000EFC24EA0C0C4C6804F0030404FA0EF40D
:1034E00044EA0C0404604C6814F4403FC1D04FEA35
:1034F000930C0CF10205144C54F8255003F003040E
:103500004FEA840E0F2404FA0EF425EA0405B0F104
:10351000904F3FF474AF0E4CA0420ED004F580647F
:10352000A0420CD004F58064A0420AD004F5806467
:10353000A0423FF462AF072462E7012460E702245F
:103540005EE703245CE7F0BD00000140000800587E
:1035500000040048002331FA03F27ED0F0B52EE0DB
:10356000042500E0002505FA0CFCA44555D00468AC
:103570005D004FF0030C0CFA05FC44EA0C040460F7
:103580004FEAD30E0EF1080E50F82E4003F0070557
:10359000AE000F25B54024EA050440F82E40C4686B
:1035A00024EA0C04C460446824EA0202426082688F
:1035B00022EA0C028260013331FA03F24CD001227C
:1035C0009A4012EA0107F6D04FEA930E0EF1020577
:1035D000224C54F8254003F0030C4FEA8C0C0F25C5
:1035E00005FA0CF63440B0F1904FBBD01C4DA84208
:1035F0000DD005F58065A8420BD005F58065A84281
:1036000009D005F58065A842AAD00725ABE70125BA
:10361000A9E70225A7E70325A5E7124CD4F88050B7
:1036200025EA0705C4F88050D4F8845025EA070538
:10363000C4F88450256825EA07052560656825EAF1
:1036400007076760054F0EF1020457F8245025EA7A
:10365000060547F824508AE7F0BD70470000014096
:1036600000040048000800580AB181617047816277
:103670007047704708B5054BD8681A6822EA0002FF
:103680001A605860FFF7F5FF08BD00BF001500582D
:10369000024A136843F480731360704700040058B3
:1036A000024B186800F4C060704700BF0004005867
:1036B000074AD36823F4E0631B041B0C000200F4E8
:1036C000E060034343F0BF6343F40033D3607047CB
:1036D00000ED00E000B5194BDB68C3F30223C3F132
:1036E000070CBCF1040F28BF4FF0040C03F1040ECB
:1036F000BEF1060F18D9033B4FF0FF3E0EFA0CFC4B
:1037000021EA0C0199400EFA03F322EA030319435C
:1037100000280BDB0901C9B200F1604000F56140EF
:1037200080F800135DF804FB0023E5E700F00F00CC
:103730000901C9B2024B1954F4E700BF00ED00E0E3
:1037400014ED00E0002807DB00F01F024009012310
:103750009340024A42F82030704700BF00E100E089
:1037600000280CDB00F01F024009012393402030A9
:10377000034A42F82030BFF34F8FBFF36F8F70477B
:1037800000E100E00138B0F1807F0BD24FF0E02380
:103790005861054AF02182F8231000209861072221
:1037A0001A6170470120704700ED00E0002808DB37
:1037B00000F01F024009012393404030014A42F8C3
:1037C0002030704700E100E0002808DB00F01F0215
:1037D0004009012393406030014A42F8203070478D
:1037E00000E100E0114B1B780BB90120704710B5C8
:1037F0000446FEF775FD0D4B1A784FF47A73B3FB50
:10380000F2F3B0FBF3F0FFF7BDFF68B90F2C01D95D
:1038100001200AE0002221464FF0FF30FFF75AFF57
:10382000034B1C60002000E0012010BD220000209E
:103830002400002010B5094A136843F48073136014
:103840000320FFF735FF0F20FFF7CCFF10B1012455
:10385000204610BD0446FDF7D1FFF9E700400058AF
:10386000034B1B78034A11680B441360704700BF79
:1038700022000020C0020020014B1868704700BFE2
:10388000C0020020014B1868704700BF24000020D0
:10389000014B1878704700BF220000204FF0E02253
:1038A000136923F00203136170474FF0E02213699C
:1038B00043F0020313617047024A536843F0010367
:1038C00053607047002004E0024A536843F002034B
:1038D00053607047002004E070477047002309E000
:1038E00000EB8302054951609A1D00EB82020449F6
:1038F00051600133052BF3D9704700BFD938000858
:10390000DB380008002303604FF03F1343603F2380
:1039100083607047C0B138B5044690F8383083B141
:103920000A4D2846FFF7EEFF2B6843F001132B608A
:103930002046FFF7D3FF00206063012384F838306E
:1039400038BDFCF797FFEBE701207047000C0058EB
:1039500038B504460268D36823F0A003D360FFF7AC
:103960008BFF05462368DB6813F0200F07D1FFF7B4
:1039700083FF401BB0F57A7FF4D9032000E00020DC
:1039800038BD38B50368DA6812F0400F01D0002066
:1039900038BD04464FF0FF32DA60FFF76DFF054691
:1039A0002368DB6813F0400F07D1FFF765FF431B67
:1039B000B3F57A7FF4D90320EAE70020E8E70000B6
:1039C00000286BD010B5044690F8213063B1022373
:1039D00084F82130324BDB6813F0100F09D001233B
:1039E00084F82130002010BD80F82030FCF7C0FFA3
:1039F000EDE72368CA225A62236853225A6220469E
:103A0000FFF7BFFF38B12368FF225A62042384F80E
:103A100021300120E7E72268936823F4E00323F0D4
:103A20004003936021688A68636820690343A06942
:103A3000034313438B602368E2681A6122681369A9
:103A4000A16843EA014313612268D36823F080032D
:103A5000D3602268D36C23F00303D3642168CB6C5A
:103A6000E269606902431343CB6423689B6813F0E7
:103A7000200F03D02368FF225A62B0E72046FFF7E9
:103A800067FF0028F6D02368FF225A62042384F8D7
:103A90002130002384F820300120A4E70120704762
:103AA00000280040002302E001330A38C0B2092890
:103AB000FAD81B01DBB218437047F8B590F82030F4
:103AC000012B00F0818004460E46012380F820304F
:103AD000022380F82130002A49D103689B6813F043
:103AE000400F01D10023CB703078FFF7DBFF0504D6
:103AF0007078FFF7D7FF45EA0025B078FFF7D2FFCF
:103B00000543F07845EA00452368CA225A622368D3
:103B100053225A622046FFF734FF0746002838D167
:103B2000236805F07F3525F0FE451D602268936807
:103B300023F48023936021688B68F2683069024324
:103B400013438B602268D36823F08003D36023681B
:103B50009B6813F0200F27D02368FF225A620123AD
:103B600084F82130002384F820303846F8BD0368FB
:103B70009B6813F0400F01D10023CB70357870782B
:103B8000000240EA0540B5782843F57840EA05454B
:103B9000BAE72368FF225A62042384F82130002305
:103BA00084F820300127E0E72046FFF7D1FE002807
:103BB000D2D02368FF225A62042384F821300023E4
:103BC00084F820300127D0E70227CEE770B590F8BF
:103BD0002030012B6ED004460E46012380F82030A1
:103BE000022380F821303AB94B7813F0100F03D03C
:103BF00003F0EF030A334B70002A35D1F078FFF75A
:103C000051FF05047078FFF74DFF45EA0025B078B5
:103C1000FFF748FF0543307845EA40352368CA225C
:103C20005A62236853225A622046FFF7AAFE0646CC
:103C300028BB236825F07F4525F0C0055D6022681C
:103C4000D36823F08003D36023689B6813F0200FB0
:103C500020D02368FF225A62012384F821300023F8
:103C600084F82030304670BDF5787078000240EA64
:103C70000540B5782843357840EA4535CEE72368D6
:103C8000FF225A62042384F82130002384F8203074
:103C90000126E7E72046FFF75BFE0028D9D023681E
:103CA000FF225A62042384F82130002384F8203054
:103CB0000126D7E70226D5E7030903EB830300F0CB
:103CC0000F0000EB4300C0B2704770B50C460368AC
:103CD0009B6A4B6003681B69C3F30E038B60036828
:103CE0001D68C5F30641C5F305402070C5F30626DF
:103CF000667005F07F05A57001F04003E37052B9CE
:103D0000FFF7DAFF20703046FFF7D6FF60702846D5
:103D1000FFF7D2FFA070002070BD70B503685B682C
:103D2000C3F30740C870C3F304264E7003F03F0589
:103D30008D70C3F342330B705AB90C46FFF7BCFFCA
:103D4000E0703046FFF7B8FF60702846FFF7B4FF19
:103D5000A070002070BD0000F8B590F82030012B55
:103D600077D004460E461546012380F82030022302
:103D700080F821300368CA225A62036853225A62CB
:103D800003689B6813F4806F17D0FFF775FD074633
:103D90002368DB6813F0040F0FD0FFF76DFDC01B25
:103DA000B0F57A7FF4D92368FF225A62032084F8A1
:103DB0002100002384F820304AE02268936823F42D
:103DC000806393602268D368DBB263F49063D3604E
:103DD000FFF752FD07462368DA6812F0040F0FD18F
:103DE000FFF74AFDC01BB0F57A7FF4D92368FF22A4
:103DF0005A62032084F82100002384F8203027E051
:103E00005E612268936823F00703936022689368D9
:103E10001D439560104BD3F8802042F40022C3F874
:103E200080201A6842F400221A602268936843F4E2
:103E3000804393602268936843F4806393602368AF
:103E4000FF225A62012384F82130002084F82000E8
:103E5000F8BD0220FCE700BF00080058164AD2F85F
:103E6000883043F47003C2F888304FF0B0431A68CA
:103E700042F001021A604FF4E0229A601968A2F140
:103E8000A262A2F205120A401A60D3F8942022F02E
:103E90000502C3F89420D3F8982022F00102C3F859
:103EA0009820064ADA601A611A6822F480221A60A1
:103EB00000229A61704700BF00ED00E0001004226C
:103EC0004FF0B0421368C3F30313294951F823108C
:103ED000936803F00C030C2B46D8DFE803F007458A
:103EE0004545174545451B4545451F00214B196074
:103EF0004FF0B0439B68C3F303131F4A52F82310DB
:103F00001C4A1368B3FBF1F313607047194B1B4A4B
:103F10001A60EDE7174B1A4A1A60E9E74FF0B04311
:103F2000DA6802F00302DB68C3F302130133022AEA
:103F300012D0032A14D0B1FBF3F24FF0B041CB689A
:103F4000C3F3062302FB03F3CA68520F0132B3FB2B
:103F5000F2F3084A1360CBE7084AB2FBF3F2ECE74E
:103F6000074AB2FBF3F2E8E7024B1960C0E700BF73
:103F70009C730008280000205C7300080024F400F3
:103F80000048E80100B583B009E001A9084800F045
:103F9000F4F9084B1B690199186900F0D6F9044837
:103FA00000F0BBF90028F0D003B05DF804FB00BFBF
:103FB000CC0200200000032008B5FDF78FFF08BDEC
:103FC00008B5104A104B136003F12001516003F152
:103FD0003001916003F14001116203F14801516227
:103FE00003F15001D16003F15801116103F1740133
:103FF000516103F1780191618433D361FDF796FF3C
:1040000008BD00BF000003203401032038B504467A
:104010000B4D284600F07EF90A4B5B68A2681A60D7
:10402000E268DA60084A5A609D60FDF7A1FF2268E5
:10403000064B1A606268064B1A60002038BD00BF4C
:10404000C401032000000320580A0320C8020020F6
:10405000C402002008B5054B5A681268012111728C
:104060005B68FDF78DFF002008BD00BF0000032046
:1040700000B583B007E001A9074800F07EF9074BBF
:104080001B6801989847044800F047F90028F2D0CF
:1040900003B05DF804FB00BFC4010320C802002088
:1040A00008B5024B1B68984708BD00BFC40200203A
:1040B00038B50446094D284600F02CF9084BDB685A
:1040C000A2681A605D60FDF779FF2268054B1A60EF
:1040D0006268054B1A60002038BD00BFCC01032088
:1040E00000000320D4020020D802002008B5054BB0
:1040F000DA68126810211172DB68FDF767FF002093
:1041000008BD00BF0000032008B5044BDA68DA6878
:10411000034B1B681068984708BD00BF00000320D0
:10412000D402002000B583B007E001A9074800F0E1
:1041300024F9074B1B6801989847044800F0EDF8F4
:104140000028F2D003B05DF804FB00BFCC010320CF
:10415000D802002038B504460C4D284600F0DAF8A5
:104160000B4800F0D7F80B4B1B690B4A1360A26891
:104170009A60E268DA601D6122681A6062685A60BB
:1041800022695A6162699A6138BD00BFD401032077
:10419000CC02002000000320DC02002008B501460C
:1041A000034800F0D2F80348FDF75EFF08BD00BFEA
:1041B000CC020020853F000810B5054C204600F0D9
:1041C000A9F8044B5B691C60FDF766FF10BD00BFDA
:1041D000DC010320000003207047000000B583B01D
:1041E00006E001A9064800F0C8F80198FFF7F4FFBF
:1041F000034800F092F80028F3D003B05DF804FB08
:10420000DC01032000B585B06B4600F10C022E21C5
:104210004FF6664000F0B6FF9DF80E0005B05DF861
:1042200004FB00B585B06B4600F10C020F214FF680
:10423000684000F0A7FF9DF80E0005B05DF804FB94
:1042400000B585B002466B4610214FF6754000F070
:1042500099FF9DF80E0005B05DF804FB30B4214BCA
:10426000DB6BC3F30D039B0003F1005303F54033F5
:104270001A6811681C4B99422DD0136954699569CD
:10428000516892684FEA136C80F800C04FEA134CF3
:1042900080F801C04FEA132C80F802C0C3F3031C5E
:1042A00080F803C003F00F030371230E4371230C46
:1042B0008371230AC371047245720B0E83720B0C57
:1042C000C372090A0173130E4373130C8373C27311
:1042D000002030BC704753699469D569D168126970
:1042E000D0E700BF00400058B95646A9014607482C
:1042F000C3798B4204D0064A904201D00838F7E7D0
:104300008B4200D170470020FCE700BFF873FF1F0D
:104310000070FF1F006040607047EFF3108372B6BB
:104320000268824203D0002083F310887047012086
:10433000FAE7EFF3108372B602680A604860016022
:104340000A68516083F310887047EFF3108372B6E8
:10435000086042684A6041604A68116083F31088CF
:104360007047EFF3108372B642680168116002680B
:104370004168516083F31088704710B5EFF31084E3
:1043800072B603680B600068FFF7EBFF84F31088D8
:1043900010BD08B502F02EFA08BD08B502F038FAD3
:1043A00008BD10B588B000248DF8074018222146BA
:1043B00002A8FFF7F2FF3F23ADF808308123ADF8E4
:1043C0000A300DF10703069301230793214602A843
:1043D00000F0C4FDA04203DB9DF8070008B010BD4B
:1043E000FF20FBE72DE9F04FCBB09C469DF85461D0
:1043F0009DF85C5106F1080A04AC04EB0A0B77192E
:104400000937E31901930DF10F094FF000088DF8FA
:104410000F808DF81000ADF81110ADF813208DF855
:1044200015C09DF850318DF816308DF81760324662
:10443000569906A8FFF7ADFF04F80A5009362A4638
:1044400058990BF10100FFF7A4FF3544BDF8643122
:10445000E353BDF86831019A538004351822414670
:1044600044A8FFF79AFF3F23ADF810318323ADF83E
:10447000123146944795CDF8209101234993414646
:1044800044A800F06BFD404504DB9DF80F004BB0E5
:10449000BDE8F08FFF20FAE770B5C8B00DF1070551
:1044A00000248DF8074002AE8DF80800182221463E
:1044B00042A8FFF772FF3F23ADF808318523ADF81E
:1044C0000A3144960123459346954793214642A8D5
:1044D00000F044FDA04203DB9DF8070048B070BD2A
:1044E000FF20FBE770B5C8B00DF1070600258DF879
:1044F000075002AC8DF808008DF809108DF80A20DD
:104500008DF80B309DF830318DF80C309DF834313A
:104510008DF80D309DF838318DF80E304F9BCDF869
:104520000F309DF840318DF813301822294642A8EB
:10453000FFF733FF3F23ADF808318623ADF80A318A
:1045400044940C234593469601234793294642A859
:1045500000F004FDA84203DB9DF8070048B070BDE1
:10456000FF20FBE72DE9F041C8B007460E4615468F
:104570009846072200216846FFF70FFF02AC8DF82E
:1045800008708DF809608DF80A501822002142A8A1
:10459000FFF703FF3F23ADF808318A23ADF80A3156
:1045A000449403234593CDF818D107234793002162
:1045B00042A800F0D3FC002811DB9DF8000058B998
:1045C000BDF80130A8F80030BDF803204E9B1A80DA
:1045D000BDF805204F9B1A8048B0BDE8F081FF2050
:1045E000FAE7F0B5C9B004460DF1070600258DF8CD
:1045F000075002AF8DF8080002460DF10900FFF7E1
:10460000C8FE01341822294642A8FFF7C6FE3F2300
:10461000ADF808318E23ADF80A314497459446969B
:1046200001234793294642A800F098FCA84203DBE7
:104630009DF8070049B0F0BDFF20FBE710B588B03A
:1046400000248DF807401822214602A8FFF7A5FE96
:104650003F23ADF808309223ADF80A300DF107037F
:10466000069301230793214602A800F077FCA0429D
:1046700003DB9DF8070008B010BDFF20FBE770B515
:10468000C8B00DF1070500248DF8074002AEADF863
:1046900008001822214642A8FFF77FFE3F23ADF80D
:1046A00008319523ADF80A31449602234593469587
:1046B00001234793214642A800F050FCA04203DBAF
:1046C0009DF8070048B070BDFF20FBE710B588B02B
:1046D00000248DF807401822214602A8FFF75DFE4E
:1046E0003F23ADF8083040F20113ADF80A300DF168
:1046F0000703069301230793214602A800F02EFC2E
:10470000A04203DB9DF8070008B010BDFF20FBE7C7
:104710002DE9F041C8B00446884617461E460128D8
:104720003CD0022838D0012502AB1D4403220021D1
:1047300001A8FFF732FE8DF80840012C30D0022C82
:1047400030D11024224641460DF10900FFF721FE29
:104750002F706E7003341822002142A8FFF71DFE4F
:104760003F23ADF808314FF48173ADF80A3102AB45
:104770004493459401AB469303234793002142A8F9
:1047800000F0ECFB002811DB9DF8040058B9BDF8DF
:1047900005204E9B1A8006E01125C5E70325C3E7D7
:1047A0000224CFE7972048B0BDE8F081FF20FAE768
:1047B0002DE9F041C8B006460C4690461F46012937
:1047C0004CD0022948D0032502AB1D44032200210E
:1047D00001A8FFF7E2FDADF808608DF80A40012C52
:1047E0003ED0022C3ED11024224641460DF10B0052
:1047F000FFF7CFFD2F809DF83831AB709DF83C312D
:10480000EB709DF840312B719DF844316B719DF830
:104810004831AB710A341822002142A8FFF7BDFDD0
:104820003F23ADF808314FF48273ADF80A3102AB83
:104830004493459401AB469303234793002142A838
:1048400000F08CFB002811DB9DF8040058B9BDF87E
:104850000520539B1A8006E01325B5E70525B3E72D
:104860000224C1E7972048B0BDE8F081FF20FAE7B5
:10487000F0B5C9B01C460DF1070700268DF807609A
:1048800002ADADF80800ADF80A108DF80C208DF8D7
:104890000D301A464E990DF10E00FFF77AFD0634E1
:1048A0001822314642A8FFF778FD3F23ADF80831C2
:1048B0004FF48373ADF80A3144954594469701232C
:1048C0004793314642A800F049FBB04203DB9DF814
:1048D000070049B0F0BDFF20FBE770B5C8B00DF18F
:1048E000070500248DF8074002AEADF80800182235
:1048F000214642A8FFF751FD3F23ADF8083140F2B1
:104900000B13ADF80A310F234393449602234593CA
:10491000469501234793214642A800F01FFBA04281
:1049200003DB9DF8070048B070BDFF20FBE770B5C2
:10493000C8B00DF1070500248DF8074002AEADF8B0
:1049400008001822214642A8FFF727FD3F23ADF8B3
:10495000083140F22513ADF80A31449602234593FD
:10496000469501234793214642A800F0F7FAA0425A
:1049700003DB9DF8070048B070BDFF20FBE7F0B5F2
:10498000C9B00C4611460DF1070700258DF80750F8
:1049900002AE8DF808008DF8094022460DF10A009C
:1049A000FFF7F7FC02341822294642A8FFF7F5FC6E
:1049B0003F23ADF808310C23ADF80A3144964594F5
:1049C000469701234793294642A800F0C7FAA84218
:1049D00003DB9DF8070049B0F0BDFF20FBE770B591
:1049E000C8B00DF1070600248DF8074002AD8DF820
:1049F00008008DF809101822214642A8FFF7CDFCC7
:104A00003F23ADF808310F23ADF80A314495022356
:104A10004593469601234793214642A800F09EFA0B
:104A2000A04203DB9DF8070048B070BDFF20FBE704
:104A300070B5C8B00DF1070500248DF8074002AE2F
:104A4000ADF808001822214642A8FFF7A6FC3F2334
:104A5000ADF808311823ADF80A3144960223459386
:104A6000469501234793214642A800F077FAA042D9
:104A700003DB9DF8070048B070BDFF20FBE710B5D1
:104A800088B000248DF807401822214602A8FFF7BD
:104A900084FC0323ADF80830ADF80A300DF10703AC
:104AA000069301230793214602A800F057FAA0427B
:104AB00003DB9DF8070008B010BDFF20FBE72DE9E0
:104AC000F041C8B007460E4615460DF10408032212
:104AD00000214046FFF761FC02ACADF80870ADF86C
:104AE0000A60ADF80C501822002142A8FFF755FCCF
:104AF0000823ADF808312223ADF80A314494062387
:104B00004593CDF8188103234793002142A800F074
:104B100025FA002804DB9DF8040048B0BDE8F081C8
:104B2000FF20FAE7F0B5C9B004460E461546052247
:104B300000216846FFF731FC02AFADF808401822AB
:104B4000002142A8FFF729FC0823ADF808313023E3
:104B5000ADF80A31449702234593CDF818D10523C7
:104B60004793002142A800F0F9F900280ADB9DF8DC
:104B7000000028B99DF8033033709DF804302B7085
:104B800049B0F0BDFF20FBE770B5C8B00DF10706D6
:104B900000258DF8075002AC8DF808008DF809103B
:104BA0008DF80A201822294642A8FFF7F6FB0823B1
:104BB000ADF808313123ADF80A314494032345930D
:104BC000469601234793294642A800F0C7F9A84218
:104BD00003DB9DF8070048B070BDFF20FBE7000035
:104BE0004378FF2B01D000207047B0F8032040F637
:104BF00001439A4201D00020704710B584B0B0F84C
:104C00000720174B9B8802339A4207D0144B5B88CE
:104C100001339A4216D0002004B010BD437B13F03C
:104C2000010F07D000238DF800306846FDF726F904
:104C30000120F1E701248DF800406846FDF71EF9D8
:104C40002046E9E703238DF80030B0F80B308DF8EB
:104C500008300D3001906846FDF710F90020DBE7C1
:104C6000980000202DE9F04F8BB0624800F012FB55
:104C70008F238DF81830E5238DF81930B3238DF884
:104C80001A30D5238DF81B302E238DF81C307F234E
:104C90008DF81D304A238DF81E3098238DF81F3073
:104CA0002A238DF8203048238DF821307A238DF87F
:104CB0002230CC238DF8233040238DF82430FE277A
:104CC0008DF8257000248DF826408DF827404A4B3A
:104CD00000930623012206A90220FFF719FD4FF0D9
:104CE000190B8DF818B0ED268DF819604FF0820A77
:104CF0008DF81AA06FF051038DF81B308DF81C60F1
:104D00004FF021028DF81D204FF04C018DF81E1040
:104D10006FF062008DF81F004FF041088DF8208081
:104D20004FF045058DF821504FF0220C8DF822C030
:104D30004FF08E098DF823908DF824808DF8257022
:104D40008DF826408DF827402B4B33F8020B059346
:104D5000012504954FF00A0ECDF80CE00295019460
:104D60000623009328230DF1180E72460221FFF747
:104D70001FFD8DF818B08DF819608DF81AA06FF02E
:104D800051038DF81B308DF81C604FF021028DF817
:104D90001D204FF04C018DF81E106FF062008DF851
:104DA0001F008DF820804FF045038DF821304FF023
:104DB000220C8DF822C08DF8239042238DF82430E8
:104DC0008DF825708DF826408DF827400A4B33F872
:104DD000040B059304950A23039302950194102371
:104DE00000933C2306AA0221FFF7E2FC0BB0BDE8CA
:104DF000F08F00BFE14B0008980000204FF642639F
:104E0000984201D09220704700B583B005480091C8
:104E10001346002281880088FFF72AFD03B05DF861
:104E200004FB00BF9800002008B520B9054B1B68A3
:104E300003B1984708BD034B1B68002BFAD0012033
:104E40009847F7E7EC02002030B585B004460A48E1
:104E5000FFF760FA094D284640F8044BFFF75AFA6D
:104E600001232B73064B1B6823B10294054A009261
:104E70006846984705B030BDE4020020A00000203D
:104E8000F00200200D50000810B50B461146084AEC
:104E90001468A4F80900E3721A4604F10C0001F04A
:104EA000A9FC044B1B6900210846984710BD00BFB0
:104EB000A0000020F002002010B50C464A68054B07
:104EC0001A60054BD861184600F0BAF82068FFF761
:104ED000BBFF10BDEC020020F002002000B585B041
:104EE0001B48FFF71AFA10B91A4B1B7B4BB918482D
:104EF000FFF713FA10B9174B1B7B23BB05B05DF806
:104F000004FB03A91248FFF738FA134BDB698BB196
:104F1000039A029201228DF8042001A898479DF877
:104F200004200C4B1A730B4B1B7B3BB10398FFF710
:104F300035F9DCE7074B01221A73F4E703990448BB
:104F4000FFF7F7F9D3E70248FCF788FFD6E700BF81
:104F5000A4000020A0000020F0020020F0B583B0E3
:104F600007460020FFF760FFB7F90250C5F30905B7
:104F70003B8845EA8325ADB2224B01221A70BA68FC
:104F8000397B2846FFF780FF0026002E33D148F2F8
:104F9000E800FCF76EFF05E0B4F80D30AB4216D028
:104FA000237B33BB1848FFF7B8F90028EDD101A9DE
:104FB0001548FFF7E2F9019C637A0F2BECD0A38927
:104FC000AB4208D0E37A002BECD00126EAE73B693C
:104FD000E27A1A70E4E7A27A033AD2B27B699A4283
:104FE000A8BF1A467A6104F10E01386901F002FC8B
:104FF000E8E70126D6E70120FFF716FF002003B0FF
:10500000F0BD00BFE0020020E402002010B5014620
:10501000437A0E3BDBB2012B07D9074C2046FFF742
:1050200094F92046FCF71AFF10BD0448FFF78DF9EC
:105030000020FCF719FFF7E7A4000020E40200209D
:10504000024B0360024B0361704700BF0D40000834
:105050005540000808B538B9084B1B6803B198479C
:10506000074B00221A7008BD054B01221A70034B32
:105070001B68002BF7D010469847F4E71403002074
:10508000D400002030B585B004460B4D686005F1B2
:105090000800FFF73FF90120FFF7DCFF01232B7425
:1050A000064B1B6833B10394054A0192054A0292EC
:1050B00001A8984705B030BDD40000201803002097
:1050C000ED510008C950000810B50146034C2046B8
:1050D000FFF73BF92046FBF781FD10BDDC00002007
:1050E00010B50C464A68054B1A60054BD861184646
:1050F00000F082F82068FFF7C5FF10BD1403002000
:105100001803002000B585B01B48FFF706F910B959
:105110001A4B1B7C4BB91848FFF7FFF810B9174B17
:105120001B7C23BB05B05DF804FB03A91248FFF705
:1051300024F9134BDB698BB1039A029201228DF89B
:10514000042001A898479DF804200C4B1A740B4BBF
:105150001B7C3BB10398FFF721F8DCE7074B0122EA
:105160001A74F4E703990448FFF7E3F8D3E7024819
:10517000FBF734FDD6E700BFDC000020D4000020A0
:10518000180300202DE9F04107460C4616461D463F
:105190000020FFF75FFFDFF85080D8F80400A0F888
:1051A0000970C472224631460C3001F023FB012401
:1051B0000B4B1C700B4B1B6900210846984748F2AB
:1051C000E800FBF716FDD8F804108A78033205F1E1
:1051D000080001F00FFB2046FFF73CFFBDE8F0811F
:1051E0001003002018030020D400002008B5002080
:1051F000FBF7FAFC08BD0000024B0360024B0361A1
:10520000704700BFB1400008ED400008704770478C
:1052100070477047704770477047704770477047D6
:10522000704770477047704770477047704708B5C0
:10523000FFF7ECFFFFF7EBFFFFF7EAFFFFF7E9FFF0
:10524000FFF7E8FFFFF7E7FFFFF7E6FFFFF7E5FFF0
:10525000FFF7E4FFFFF7E3FFFFF7E2FFFFF7E1FFF0
:10526000FFF700FDFFF7DEFFFFF7DDFFFFF7DDFFD4
:10527000FFF7DAFFFFF7DAFF08BD000008B5044BBF
:1052800000221A7783F82020FFF7D1FF08BD00BF66
:10529000B0000020034A137F42F823000133137744
:1052A000704700BFB000002038B505464378FF2B9B
:1052B00006D1B0F8033003F47F43B3F5406F03D059
:1052C0002846FCF713FD38BD002422460A4B1B7FFD
:1052D000A34209D9084B53F8243028469847024680
:1052E00010B90134E4B2F1E7002AE9D0022A01D171
:1052F0000020E8E70120E6E7B00000200023024A92
:105300001360024A136070473C03002038030020FA
:10531000EFF3108372B641B1012903D106490A683F
:105320001043086083F31088704703490A6822EA33
:1053300000000860F6E700BF3803002038B5EFF33F
:10534000108472B60C4B1B683BB10C4D2B68984710
:105350006B68984784F3108838BD094B1B682BB1E4
:10536000064DAB689847EB689847F3E7034D2B6908
:1053700098476B699847EDE73C0300200C730008E1
:1053800038030020EFF3108C72B6064A136803430B
:105390001360054A52F83130184342F831008CF35B
:1053A00010887047DC030020CC030020EFF310814D
:1053B00072B6044A136823EA0000106081F3108873
:1053C000704700BF30000020EFF3108172B6034A2F
:1053D00013681843106081F3108870473000002074
:1053E000EFF3108172B6034A13681843106081F31B
:1053F000108870474403002070477047030C1B045B
:10540000B3B90004102310F07F4F02D10833DBB290
:10541000000210F0704F02D10433DBB20001000F24
:10542000044A105C1844C0B2C0F11F00C0B27047FB
:105430000023E8E7DC73000838B5404B1C682040C7
:1054400018603F4B1A683F4B1B683F4909683F484B
:10545000056849E001333E4A52F833200A400242CF
:10546000F8D03B4D55F833200A40024005EBC30508
:105470006968114202D14FF0FF306860344D05EB8E
:10548000C30568681040FFF7B9FF324908606A68D1
:10549000012303FA00F022EA00006860EFF31085B0
:1054A00072B60A689340D84325490A6822EA030382
:1054B0000B60022306E0013B254951F833200240EE
:1054C00041F83320002BF6D185F31088214B1A6860
:1054D000214B53F822309847194B1A68194B1B6817
:1054E00019490968194805680A40144800680242C9
:1054F00001D02B40AFD0174B4FF0FF321A60FFF7AF
:105500007BFFEFF3108572B60D4B1B680D4A1168D7
:105510000D4A12681340094A1268134203D10B4B1B
:105520001B680B4206D085F31088FFF766FF034B1C
:105530001C6038BDFBF748FBF5E700BF2C000020DE
:10554000DC0300204403002030000020480300203A
:10555000CC030020400300204C030020F8B5044693
:10556000114B1E68B6F1FF3F05D00125B5400F4B2A
:105570001F681C6005E00025F9E721462846FBF777
:1055800027FB0B4B1B682342F7D0074B1E60EFF342
:10559000108272B6064B186820EA04041C6082F37D
:1055A0001088024B1F60F8BD400300204803002014
:1055B0004403002038B51446EFF3108572B6FFF7A8
:1055C0001DFF034B43F8204085F3108838BD00BF12
:1055D0004C03002010B503460C4A0D490D480068E5
:1055E00040B10C4800680344521A934206D8094A55
:1055F000136010BD0748084C0460F2E701F0D0F8D2
:105600000C2303604FF0FF30F3E700BF00000320DE
:1056100000100000E00300208004002008B51248BC
:10562000124B0360124B4360002383600122C2606F
:10563000036143618361C361036200F010FE50B9EE
:105640000021094801F018F840B90021064801F08E
:1056500041F830B908BDFBF71DF8F1E7FBF71AF880
:10566000F3E7FBF717F8F5E7E403002000540040E8
:10567000B57DB11010B59CB004460021179118916A
:1056800019911A911B91502203A801F0C1F82268C8
:10569000194B9A4201D01CB010BD042303934FF460
:1056A00040330B9303A8FDF7BEFB10BB4FF0B04493
:1056B000E36C43F00203E364E36C03F00203029340
:1056C000029B4FF4407317931223189300231993EE
:1056D0001A9304231B9317A90848FDF761FEA36DD5
:1056E00043F40013A365A36D03F400130193019B1E
:1056F000D1E7FAF7CFFFD9E7005400400004004893
:1057000002680B4B9A4200D0704710B54FF0B04280
:10571000936D23F400139365064C4FF4807120467B
:10572000FDF718FF4FF400712046FDF713FF10BD81
:105730000054004000040048B5EEC00AF1EE10FA33
:105740000DDADFED0E7A20EE270AF6EE007A30EE63
:10575000670ABDEEC00A10EE103A18B27047DFEDCE
:10576000077A20EE270AF6EE007A30EE270ABDEE21
:10577000C00A10EE103A18B2704700BF0000C842CD
:1057800008B500210420FFF7FDFD08BD08B5002184
:105790000420FFF7F7FD08BD10B582B08446084627
:1057A00011460B4B83FB0C234FEAEC74C4EB6314E0
:1057B00023B2642202FB14CC0FFA8CF4002C05DB1C
:1057C0000094044A01F02CF802B010BD6442F7E7DF
:1057D0001F85EB51EC73000800B583B00F4B83FBC2
:1057E0000023C217C2EB631213B2642101FB120043
:1057F00000B2002810DB0090094A1021094801F08E
:105800000FF8431E0E2B04D8074B1870074B0122CC
:105810001A7003B05DF804FB4042ECE71F85EB51C2
:10582000F8730008440400205404002055040020AC
:10583000F0B5A5B02E4B1B7813B12E4B1B782BB9AE
:1058400000242B4B1C70204625B0F0BD00F056FB09
:10585000294B1B68984203D80024254B1C70F2E7A3
:1058600020A9184600F01CFB044618B10024204B68
:105870001C70E8E71DAD0C222946BDF98800FFF732
:105880008BFF1AAE0C223146BDF98A00FFF784FF68
:1058900017AF0C223946BDF98C00FFF77DFFBDF82C
:1058A0008E300493039702960195219B0093209BD1
:1058B000124A402107A800F0B3FF431E3B2B03D937
:1058C0000B4B00221A70BEE7C2B207A94FF6426026
:1058D000FFF794FA08B10124B5E7074A13680133CA
:1058E0001360CD21064B1878FBF7A2FD0124AAE72F
:1058F00038040020A10200203C04002004740008A9
:105900004004002000B587B0002301930293039365
:10591000049305934FF0B043DA6C42F00202DA646C
:10592000DB6C03F002030093009B4FF44073019380
:1059300012230293042305930DEB03010248FDF7A4
:105940002FFD07B05DF804FB0004004808B5FFF721
:10595000D9FF002210214FF09040FDF785FE022074
:10596000FBF712F9FFF75AFE08BD000030B587B00B
:105970000024019402940394049405940094124D1D
:10598000224601A92846FEF7A0F922466946284684
:10599000FEF7C3F99DF801209DF8023003EB421396
:1059A00003EB4303D8009DF8042002449DF8053022
:1059B000C3EB031398004FF4616303FB02009DF8EF
:1059C0000630184407B030BD4001002030B583B028
:1059D0001B4B1C787CB91B4B18801B4B18801B4B36
:1059E0001A68104418600134E4B2154B1C70042C82
:1059F00010D803B030BD134BB3F90030834201DD42
:105A0000104B1880104BB3F900308342E7DA0E4B8D
:105A10001880E4E790FBF4F004B2FFF7A7FF084D0D
:105A20002B780093084BB3F90030064AB2F90020F6
:105A3000214600F0B1F90023044A13602B70D8E727
:105A4000570400205A040020580400205C04002061
:105A500008B50B4B1B7813B10A4B1B7803B908BD73
:105A6000094B1A7809494FF64260FFF7C7F9002839
:105A7000F5D1034B00221A700F20FCF7B9F9EEE7BD
:105A800055040020A10200205404002044040020FA
:105A9000F0B587B000240194029403940494059413
:105AA000134800F040FC4FF0B043DA6C42F00202C1
:105AB000DA64DB6C03F002030093009B4FF4407741
:105AC000019701250295039404940A4E01A93046DA
:105AD000FDF766FC224639463046FDF7C5FD2A46ED
